:020000040000FA
:060000000A128A110C280F
:10000800FE00030EF0000A08F1000A128A153A2DC4
:100018000A128A110F2883120313C601C701C801E7
:10002800C90183120317DE01DF01E001E101E201EA
:10003800E30183010A128A11212883120317DE01C2
:10004800DF01E001E10183120313C601C701C80102
:10005800C90183120317E201E3010130831203137C
:10006800C3000030C4005030BD003D08C5006430F6
:10007800C1000030C2006430BF000030C0009801E9
:1000880083160313980118151930990098168312CE
:100098000313181698178B178B160B168316031352
:1000A80001170A128A15BE240A128A110A128A1125
:1000B800F7230A128A11393083160313860085162E
:1000C8000030F200F3000A128A11E6230A128A119C
:1000D800831203138C1E71287228992AFF30831209
:1000E8000317D600FF30D700013083120317D60755
:1000F8000318D70A0030D7070A128A15B2240A1241
:100108008A1183120313BD00831203175608103E89
:100118008400831203133D08831780000030F50024
:100128000030F4000030F3000530F2000A128A159E
:1001380079250A128A11831203175608103E840083
:100148000A30831700060319AA28AB28B8285708CD
:10015800803AFF0080307F02031DB42845305602E4
:10016800031CB728B8287828013083120317D6074C
:100178000318D70A0030D7075608103E84008317A3
:1001880080010030F5000030F4000030F3000A3040
:10019800F2000A128A1579250A128A1183120317A6
:1001A8001C0883120313BD00BE013D088312031708
:1001B800DC00831203133E0883120317DD002408B2
:1001C80083120313BD00BE013D0883120317D80034
:1001D800831203133E0883120317D90025088312DC
:1001E8000313BD00BE013D0883120317DA00831212
:1001F80003133E0883120317DB006B2A5D08831282
:100208000313B700831203175C0883120313B600A5
:100218000A128A15A4250A128A110A128A150725B4
:100228000A128A11730883120313B7007208B60002
:100238000A128A1518250A128A11730883120313E1
:10024800B9007208B8000A128A1559260A128A11CA
:100258008A2A5D0883120313B700831203175C0808
:1002680083120313B6000A128A15A4250A128A11EA
:1002780083120313C301C4018A2A5D08831203137E
:10028800B700831203175C0883120313B6000A121F
:100298008A15A4250A128A11013083120313C30098
:1002A8000030C4008A2A5D0883120313B700831242
:1002B80003175C0883120313B6000A128A15A425D3
:1002C8000A128A1183120313C801C9018A2A5D0818
:1002D80083120313B700831203175C0883120313F6
:1002E800B6000A128A15A4250A128A11013083124F
:1002F8000313C8000030C9008A2A5D08831203135B
:10030800B700831203175C0883120313B6000A129E
:100318008A15A4250A128A1100308312031759027C
:10032800303003195802031C9A299B29B62900303A
:1003380059023A30031958020318A329A429B629E7
:1003480000305B02303003195A02031CAC29AD2976
:10035800B62900305B023A3003195A02031CB5294A
:10036800B629BD2965300A128A112D230A128A116D
:100378008A2A5908F3005808F2000A30F4000030BD
:10038800F5000A128A11D7270A128A118312031755
:100398005A08720783120313BD00831203175B0800
:1003A80003185B0A730783120313BE003D08F03E6F
:1003B800BF003E080318013EFD3EC0008A2A5D08C2
:1003C80083120313B700831203175C088312031305
:1003D800B6000A128A15A4250A128A11003083125F
:1003E80003175902303003195802031CFC29FD2950
:1003F800182A003059023A30031958020318052AFE
:10040800062A182A00305B02303003195A02031CEE
:100418000E2A0F2A182A00305B023A3003195A02B2
:10042800031C172A182A1F2A65300A128A112D233D
:100438000A128A118A2A5908F3005808F2000A3069
:10044800F4000030F5000A128A11D7270A128A111F
:10045800831203175A08720783120313BD0083120D
:1004680003175B0803185B0A730783120313BE00A4
:100478003D08F03EC1003E080318013EFD3EC200A3
:100488008A2A5D0883120313B700831203175C08D6
:1004980083120313B6000A128A15A4250A128A11B8
:1004A800831203134008B7003F08B6004208B9009A
:1004B8004108B8000A128A159F260A128A118A2A48
:1004C80065300A128A112D230A128A118A2A5D08B8
:1004D800003A0319702A642A5C08313A0319022980
:1004E800033A03192D29013A03194129073A031937
:1004F8005729013A03196B29033A03198129013A4B
:100508000319E3290F3A0319452A642A83120313AE
:100518008C12653083120317A500A40083120313FD
:10052800BD003D08831203179C008312031760085F
:1005380061040319A02AA12ACD2A0130DE07031875
:10054800DF0A0030DF07E001E10132305E065F04B8
:10055800031DAF2AB02ACD2ADE01DF010A128A154F
:1005680007250A128A11730883120313B700720849
:10057800B6000A128A1518250A128A1173088312FE
:100588000313B9007208B8000A128A1559260A120C
:100598008A11831203138619D22AD32ADC2A861DCC
:1005A800D62AD72AD32A0A128A15E6240A128A11C9
:1005B80083120317620863040319E32AE42AED2A65
:1005C8000A128A15E6240A128A1183120317E20115
:1005D800E30183120313061EF22AF32AFB2A861E5E
:1005E800F62AF72AFB2A851AFA2AFB2A242B061E42
:1005F800FE2AFF2AFB2A861E022B032BFB2A851EB6
:10060800062B072BFB2A0A128A15D8240A128A11EC
:1006180072087304031D112B122B1C2B0130F200DE
:100628000030F3000A128A11E6230A128A11242BD9
:100638000030F200F3000A128A11E6230A128A1126
:100648000A128A111D260A128A116C280A128A11A6
:100658000C2883160313DC00DD01DE01952BA03086
:10066800A4000030A500DC30A6008530A7000A12DF
:100678008A15E5260A128A11D42BA030A40000306E
:10068800A5001730A6008530A7000A128A15E526AE
:100698000A128A11D42BA030A4000030A500E23041
:1006A800A6008430A7000A128A15E5260A128A11C4
:1006B800D42BA030A4000030A500AC30A6008430B4
:1006C800A7000A128A15E5260A128A11D42BA0302F
:1006D800A4000030A500B230A6008530A7000A1299
:1006E8008A15E5260A128A11D42BA030A4000030FE
:1006F800A5004B30A6008530A7000A128A15E5260A
:100708000A128A11D42BA030A4000030A5007F3033
:10071800A6008530A7000A128A15E5260A128A1152
:10072800D42B5C0883120313B600B7013708003ACC
:1007380003199F2BD42B3608413A0319792B053A14
:1007480003195D2B013A03194F2B0B3A0319872B19
:100758001E3A0319412B033A03196B2B363A031936
:10076800332BD42B5D08A03E840000080A128A159A
:10077800A8240A128A11013083160313DD0703180F
:10078800DE0A0030DE070030F5000030F4000030EB
:10079800F3001430F2000A128A1579250A128A1118
:1007A800831603135D08A03E840083130008031D0D
:1007B800DE2BDF2BB62B0A300A128A15A8240A1260
:1007C8008A11080083160313871272087304031929
:1007D800EE2BEF2BF32B831203138716F62B8312C2
:1007E80003138712080007308316031381000800DB
:10080000FF1B0A2C83137F1883170008840A03191F
:10081000FF0A08007F087F398A000408840A031948
:10082000FF0A8200013400340A3400346434003496
:10083000E8340334103427340A343C3450346134FF
:10084000723461346D3465347434653472347334A5
:100850003E340A3409343C346C346F3477345F34BA
:100860006C3469346734683474343E342534643409
:100870003C342F346C346F3477345F346C346934E7
:100880006734683474343E340A3409343C346C348C
:10089000753478345F346334663467343E342534D9
:1008A00064343C342F346C34753478345F346334BE
:1008B000663467343E340A343C342F345034613467
:1008C000723461346D346534743465347234733425
:1008D0003E340A3400340A343C346C3464347234A8
:1008E0005F34763461346C34753465343E340A34A4
:1008F00009343C346C34643472345F3431343E3403
:10090000253464343C342F346C34643472345F34B2
:1009100031343E340A3409343C346C346434723437
:100920005F3432343E34253464343C342F346C34F8
:10093000643472345F3432343E340A343C342F34FD
:100940006C34643472345F34763461346C347534AE
:1009500065343E340A3400340A343C3469346E342D
:1009600066346F343E340A3409343C34733474349E
:100970006134743465343E343C344D346F347434F3
:1009800069346F346E34203474346F3420347434EA
:1009900068346534203472346934673468347434AC
:1009A0003E343C345C3473347434613474346534B0
:1009B0003E340A343C345C3469346E3466346F340B
:1009C0003E3400340A343C3469346E3466346F3457
:1009D0003E340A3409343C3473347434613474342E
:1009E00065343E343C344D346F34743469346F3480
:1009F0006E34203474346F34203474346834653485
:100A000020346C346534663474343E343C345C34A5
:100A1000733474346134743465343E340A343C3491
:100A20005C3469346E3466346F343E3400340A34D6
:100A30003C3469346E3466346F343E340A340934DD
:100A40003C34733474346134743465343E343C342F
:100A50004D346F3474346F347234203468346134FC
:100A600073342034733474346F34703470346534B8
:100A700064343E343C345C347334743461347434E0
:100A800065343E340A343C345C3469346E34663444
:100A90006F343E3400340A343C3469346E34663486
:100AA0006F343E340A3409343C3473347434613462
:100AB000743465343E343C344D346F3474346F34A4
:100AC000723420346F347634653472342D346834A3
:100AD000653461347434653464343E343C345C349D
:100AE000733474346134743465343E340A343C34C1
:100AF0005C3469346E3466346F343E3400340A3406
:100B00003C3469346E3466346F343E340A3409340C
:100B10003C34733474346134743465343E343C345E
:100B20004C34693467346834743420346934733431
:100B3000203474346F346F3420346C346F34773431
:100B40003E343C345C34733474346134743465340E
:100B50003E340A343C345C3469346E3466346F3469
:100B60003E3400340A343C3469346E3466346F34B5
:100B70003E340A3409343C3473347434613474348C
:100B800065343E343C345334743461346E346434EC
:100B9000423479343E343C345C34733474346134DC
:100BA000743465343E340A343C345C3469346E3415
:100BB00066346F343E3400340A343C3469346E3465
:100BC00066346F343E340A3409343C34733474343C
:100BD0006134743465343E343C3465347234723478
:100BE0006F3472343E343C345C3473347434613466
:100BF000743465343E340A343C345C3469346E34C5
:100C000066346F343E3400340A343C344134433467
:100C10004B343E340A3409343C3443343E342534B6
:100C200063343C342F3443343E340A343C342F3460
:100C3000413443344B343E3400340A128A15CB24F9
:100C40000A128A113230F4000030F5000A128A15B7
:100C500057250A128A11750883120313C7007408F6
:100C6000C6000A128A15BE240A128A1183120313BF
:100C700046084704031D3D2E3E2E3F2E8610480891
:100C80004904031D442E452E462E06110A128A15CC
:100C900007250A128A11720883120313B800730819
:100CA000B9000A128A1518250A128A1172088312CD
:100CB00003133802F4007308031C730A3902F500A9
:100CC0000A128A15F6240A128A1175088312031370
:100CD000BC007408BB0048084904031D702E712E27
:100CE0007C2F46084704031D762E772E7C2F0A1290
:100CF0008A1507250A128A1173088312031340020A
:100D0000031D842E72083F02031C872E882E992E05
:100D10000A128A1518250A128A11730883120313FE
:100D20004002031D952E72083F020318982E992E3B
:100D3000562F42083C02031D9F2E41083B02031818
:100D4000A22EA32EC82E06138613430844040319AB
:100D5000AA2EAB2ED62F453045060319B02EB12E44
:100D6000B72E44304506031DB62EB72ED62F503071
:100D7000B8003808C50045080A128A112D230A1246
:100D80008A110A300A128A15A8240A128A11D62F4B
:100D90000A128A1518250A128A117208831203137F
:100DA000B8007308B9000A128A1507250A128A11B9
:100DB000831203133908803ABA007308803A3A0262
:100DC000031DE42E720838020318E72EE82E0F2FB9
:100DD0008312031306178613430844040319F12EE4
:100DE000F22ED62F503045060319F72EF82EFE2E80
:100DF00044304506031DFD2EFE2ED62F4530B8008B
:100E00003808C50045080A128A112D230A128A11D2
:100E10000A300A128A15A8240A128A11D62F0A1239
:100E20008A1507250A128A11720883120313B80063
:100E30007308B9000A128A1518250A128A1183123A
:100E400003133908803ABA007308803A3A02031D46
:100E50002B2F7208380203182E2F2F2F7B2F83126F
:100E6000031306138617430844040319382F392F38
:100E70007B2F4530450603193E2F3F2F452F50301D
:100E80004506031D442F452F7B2F4430B8003808FA
:100E9000C50045080A128A112D230A128A110A3048
:100EA0000A128A15A8240A128A11D62F061386134D
:100EB0004308440403195D2F5E2FD62F45304506A5
:100EC0000319632F642F6A2F44304506031D692FD1
:100ED0006A2FD62F5030B8003808C5004E300A129D
:100EE0008A112D230A128A110A300A128A15A8249F
:100EF0000A128A11D62FD62F0613861348084904E2
:100F00000319832F842FA72F0615430844040319C0
:100F10008A2F8B2FA72F453045060319902F912F2D
:100F2000972F44304506031D962F972FA72F50303B
:100F3000B8003808C50053300A128A112D230A124E
:100F40008A110A300A128A15A8240A128A118312F9
:100F50000313460847040319AE2FAF2FD62F86146C
:100F60000130C8000030C900430844040319B92FF8
:100F7000BA2FD62F453045060319BF2FC02FC62FD5
:100F800044304506031DC52FC62FD62F5030B8005C
:100F90003808C50041300A128A112D230A128A111D
:100FA0000A300A128A15A8240A128A110800F601CA
:100FB000F701721CDC2FDD2FE32F7408F6070318EE
:100FC000F70A7508F70701300310F40DF50DFF3E21
:100FD000031DE42F01300310F30CF20CFF3E031D40
:100FE000EB2F72087304031DF62FF72FD92F770804
:080FF000F3007608F20008008E
:10195000F200831203130C1EAE2CAF2CA92C7208BC
:1019600099000800831203138C1EB72CB82CB22CDC
:101970001A08F2007208F3007308080083160313B4
:101980009F111F159F101F109F17831203131F1302
:101990009F131F140800831603139F111F119F101C
:1019A0001F109F17831203131F139F131F14080088
:1019B00083120313871EDD2CDE2CE32C0130F20092
:1019C0000030F300E52CF201F30108008312031349
:1019D00048034904031DED2CEE2CF12CC801C9016C
:1019E000F52C0130C8000030C9000800F51FF92CA3
:1019F000FA2C062D7409F6007509F700F60A03198A
:101A0000F70A7608F4007708F500062D080083121F
:101A100003131F159F121F129F111F19102D112D37
:101A20000D2D1E08F300831603131E08F200080094
:101A3000831203131F159F121F129F151F19212DAB
:101A4000222D1E2D1E08F300831603131E08F2001C
:101A50000800831203131F159F121F169F111F19D1
:101A6000322D332D2F2D1E08F300831603131E086D
:101A7000F20008000B1D3D2D3E2D452D0130831237
:101A80000317E0000030E1000B118B1C482D492D9D
:101A9000502D013083120317E2000030E3008B1059
:101AA00071088A00700E8300FE0E7E0E09000A1275
:101AB0008A1529250A128A157508F7007408F60098
:101AC0000310F60DF70D7708803AF8007308803A96
:101AD0007802031D6D2D720876020318702D712D8A
:101AE000762D0130F4000030F500782DF401F50179
:101AF0000800FA01FB01FA01FB01842D0130FA070D
:101B00000318FB0A0030FB077A08F6007B08F70091
:101B10000030F71BFF30F800F9007908803AFF0029
:101B20007508803A7F02031D9F2D74087802031DFB
:101B30009F2D73087702031D9F2D72087602031CE8
:101B4000A22DA32D7E2D080083160313E101E201CF
:101B5000A03083120313A4000030A5000430A600B7
:101B60008630A7003708A9003608A8000A128A158F
:101B7000E5260A128A15CD2D6108A03E84000008D2
:101B80000A128A15A8240A128A1501308316031333
:101B9000E1070318E20A0030E20783160313610825
:101BA000A03E840083130008031DD72DD82DBC2D23
:101BB000080083120313200821040319E02DE12DEE
:101BC000102EFB01FB0AEF2D01300310A00DA10D1B
:101BD000FF3E031DE52D0130FA007A08FB07A11F27
:101BE000F22DF32DE42D21082302031DF92D2008E9
:101BF0002202031CFC2DFD2D032E2008A202210829
:101C0000031CA303A30201300310A10CA00CFF3E90
:101C1000031D042E0130FB02031D0F2E102EF32D89
:101C20002308A1002208A0000800F701F8017208AB
:101C3000730403191C2E1D2E542EF901F90A2B2EA4
:101C400001300310F20DF30DFF3E031D212E013074
:101C5000F6007608F907F31F2E2E2F2E202E0130C6
:101C60000310F70DF80DFF3E031D302E73087502AB
:101C7000031D3C2E72087402031C3F2E402E472E7B
:101C80007208F4027308031CF503F502771401309F
:101C90000310F30CF20CFF3E031D482E0130F90235
:101CA000031D532E542E2F2E7808F3007708F200D0
:101CB000080083160313E601E701A0308312031323
:101CC000A4000030A5006B30A6008430A7003708C0
:101CD000A9003608A8003908AB003808AA000A1283
:101CE0008A15E5260A128A15932E6608A03E8400FE
:101CF00000080A128A15A8240A128A1501308316D0
:101D00000313E6070318E70A0030E7070030F50081
:101D10000030F4000030F300C830F2000A128A15D7
:101D200079250A128A15831603136608A03E8400DB
:101D300083130008031D9D2E9E2E752E080083160A
:101D40000317EA01EB01903083120313A400013062
:101D5000A5001C30A6008430A7003708A90036086B
:101D6000A8003908AB003808AA000A128A15E5262F
:101D70000A128A15D92E6A08903E840000080A12B9
:101D80008A15A8240A128A15013083160317EA0758
:101D90000318EB0A0030EB070030F5000030F400C8
:101DA0000030F300C830F2000A128A1579250A12B1
:101DB0008A15831603176A08903E8400831700086B
:101DC000031DE32EE42EBB2E0800283083120313DC
:101DD000AC002C08B200E12F253035060319F12E96
:101DE000F22E022F3508AC00240884008317251C2E
:101DF00083132C0880000130A4070318A50A0030C3
:101E0000A507E12FB001102F3208840083130008CA
:101E1000AC002C08B5000230AC002C08B207F22E42
:101E20002708AD002608AC00A60A0319A70A2D084A
:101E3000FF002C0884000A128A1100240A128A1555
:101E4000B500AE00AF012F08003A0319282FF22E7B
:101E50002E08003A0319F92F633A0319042F073AA1
:101E60000319362F0D3A0319362FF22E320884004B
:101E700083130008B300840A0008B4000230AC00E9
:101E80002C08B207B41F452F462F4F2F0330AC004C
:101E90002C08B004B309B409B30A0319B40AB50194
:101EA000B50A3508AC002C07123E840084300318B4
:101EB000013EFF000A128A1100240A128A15AD00A1
:101EC0000A128A1100240A128A15AE002E08340262
:101ED000031D6C2F2D08330203186F2F702F712FE5
:101EE0007B2F0130AC002C08B50705303506031DEB
:101EF0007A2F7B2F512F300803390319802F812F20
:101F0000902F2D30AC00240884008317251C8313E8
:101F10002C0880000130A4070318A50A0030A5078B
:101F20003508AC002C08B100D82F0A30A0000030D2
:101F3000A1003108AC002C07123E84008430031845
:101F4000013EFF000A128A1100240A128A15F200CB
:101F50000A128A1100240A128A15F3003408F500C7
:101F60003308F4000A128A1515260A128A15730816
:101F700083120313A3007208A2000A128A15D9253E
:101F80000A128A15831203132008303EAD002D0873
:101F9000B5003508AC00240884008317251C831382
:101FA0002C0880000130A4070318A50A0030A507FB
:101FB000FF30AC002C08B107310A031DE02FE12FE0
:101FC000952F2708AD002608AC00A60A0319A70A1A
:101FD0002D08FF002C0884000A128A1100240A121E
:101FE0008A15AE002E08B5003508031DF82FF92F0D
:101FF000EC2E240884008317251C8313800108001D
:02400E003A3F37
:00000001FF
