:020000040000FA
:060000000A128A11FC2F18
:100F7A0083160313861508108312031308108312AD
:100F8A0003138619C92FCA2FC42F0814F001F101BF
:100F9A000130F0070318F10A0030F1077108803AAE
:100FAA00FF00CE307F02031DDC2F20307002031CAD
:100FBA00DF2FE02FCD2F831203130810F001F10168
:100FCA000130F0070318F10A0030F1077108803A7E
:100FDA00FF00CE307F02031DF42F20307002031C65
:100FEA00F72FF82FE52FC42F0A128A110028830140
:060FFA000A128A11BD2F4E
:02400E003A3F37
:00000001FF
